:030000000208D81B
:0C08D800787FE4F6D8FD75810702080067
:10080000D2A6D2A5D2A4D2A3D2A2D2A1D2A0C2A053
:1008100020A40575B0F9800E20A50575B0A480064A
:1008200020A60675B0B01208AED2A6D2A5D2A4D228
:10083000A3D2A2D2A1D2A0C2A120A40575B0998052
:100840000E20A50575B092800620A60675B082120E
:1008500008AED2A6D2A5D2A4D2A3D2A2D2A1D2A0AF
:10086000C2A220A40575B0F8800E20A50575B08041
:10087000800620A60675B0901208AED2A6D2A5D2E8
:10088000A4D2A3D2A2D2A1D2A0C2A320A40575B0A3
:10089000C6800620A50975B0C01208AE0208003057
:0E08A000A60302080075B0861208AE0208001A
:0408AE007FC87E0081
:1008B200E4FDFCC3ED9FEE6480F8EC648098501573
:1008C200E4FBFA0BBB00010ABA04F8BBFBF50DBD51
:0508D20000010C80DEB6
:0108D70022FE
:00000001FF
