:03000000020C49A6
:0C0C4900787FE4F6D8FD758118020C904D
:100CD500456E74657220506173733A0041636365B4
:100CE5007373204772616E74656400416363657355
:100CF500732044656E6965640054727920416761AB
:100D0500696E00506C656173652057616974006692
:0B0D15006577205365636F6E64730008
:0F0DC900050F313233340002140000020D000018
:100D95007F38120DA97F0C120DA97F01120DA97FB5
:040DA50080020DA912
:100DA9008FA0C2B0120D49C2B27F027E00020D515E
:100DB9008FA0D2B0120D49C2B27F027E00020D513E
:060D20007BFF7A0C79D57F
:100D26008B168A178918AB16AA17A918120A95FFE7
:100D36006010120DB974012518F518E43517F5176A
:030D460080E42224
:080D4900C2B1D2B27F027E00AC
:100D5100E4FDFCC3ED9FEC9E5015E4FBFA0BBB00D8
:0F0D6100010ABA04F8BBFBF50DBD00010C80E4DC
:010D70002260
:040D71007F647E001D
:100D7500E4FDFCC3ED9FEC9E5015E4FBFA0BBB00B4
:0F0D8500010ABA04F8BBFBF50DBD00010C80E4B8
:010D9400223C
:10080000120D95120D207FC0120DA9C2B4C2B5C23F
:10081000B6C3E5159404E51464809480400302098E
:10082000A1C290D293D292D2912094197F31120D0D
:10083000B90515E51570020514142408F876313051
:1008400094FD120D712095197F32120DB90515E531
:100850001570020514142408F876323095FD120D37
:10086000712096197F33120DB90515E51570020533
:1008700014142408F876333096FD120D71C291D20B
:1008800093D292D2902094197F34120DB90515E5B8
:100890001570020514142408F876343094FD120DF6
:1008A000712095197F35120DB90515E515700205F2
:1008B00014142408F876353095FD120D7120961920
:1008C0007F36120DB90515E51570020514142408BC
:1008D000F876363096FD120D71C292D293D291D233
:1008E000902094197F37120DB90515E51570020592
:1008F00014142408F876373094FD120D71209519E0
:100900007F38120DB90515E5157002051414240879
:10091000F876383095FD120D712096197F39120D39
:10092000B90515E51570020514142408F876393058
:1009300096FD120D71C293D292D291D2902094342E
:10094000D3E5159400E51464809480401DE51515E9
:100950001570021514E51524C0FF120DA97F201291
:100960000DB9E51524C0FF120DA93094FD7FC87E96
:1009700000120D7520951D7F30120DB90515E51576
:1009800070020514142408F876303095FD7FC87E77
:1009900000120D7520960A3096FD7FC87E00120D5C
:1009A00075E515640445146003020811F50C780818
:1009B0007C00FDFB7A00790F120C2CEF7037D2B45B
:1009C000D2B5C2B67F01120DA97F80120DA97BFF9F
:1009D0007A0C79E1120D26120D717F01120DA97F9B
:1009E00080120DA9120D207FC0120DA9C2B4C2B58C
:1009F000C2B6020A88050EE50E7002050DC2B4C229
:100A0000B5D2B67F01120DA97F80120DA97BFF7AA6
:100A10000C79F0120D26120D71C3E50E9403E50D4D
:100A2000648094807F015028120DA97F80120DA947
:100A30007BFF7A0C79FE120D26120D717F01120DCB
:100A4000A97F80120DA9120D207FC0120DA9803D33
:100A5000120DA97F80120DA97BFF7A0D7908120D66
:100A6000267FC0120DA97BFF7A0D7914120D267F07
:100A7000C47E09120D757F01120DA97F80120DA988
:100A8000120D207FC0120DA9E4F50DF50EE4F5144A
:050A9000F5150208113C
:100C5500020800E493A3F8E493A34003F68001F2AD
:100C650008DFF48029E493A3F85407240CC8C333A0
:100C7500C4540F4420C8834004F456800146F6DF6F
:100C8500E4800B0102040810204080900DC9E47E29
:100C9500019360BCA3FF543F30E509541FFEE49364
:100CA500A360010ECF54C025E060A840B8E493A32B
:100CB500FAE493A3F8E493A3C8C582C8CAC583CA56
:100CC500F0A3C8C582C8CAC583CADFE9DEE780BE0E
:010DD800001A
:100A9500BB010689828A83E0225002E722BBFE025F
:090AA500E32289828A83E4932292
:100AAE00E3F5F009E208B5F06D606B80F3E3F5F065
:100ABE0009E608B5F060605E80F387F009E608B5D8
:100ACE00F054605280F487F009E208B5F0486046B1
:100ADE0080F488828C8387F009E0A3B5F038603605
:100AEE0080F488828C8387F009E493A3B5F02760A5
:100AFE002580F388828C83E3F5F009E0A3B5F01628
:100B0E00601480F388828C83E3F5F009E493A3B537
:100B1E00F004600280F2020BD9808580E7808E801F
:100B2E00D2803C8015806C807E809B80B5808B80CF
:100B3E00A1804F8070803A020BE589828A83ECFA9D
:100B4E00E493F5F0A3C8C582C8CCC583CCE493A3C7
:100B5E00C8C582C8CCC583CCB5F070606E80E18903
:100B6E00828A83E493F5F0A3E208B5F05E605C80C0
:100B7E00F289828A83E0F5F0A3E608B5F04D604B6A
:100B8E0080F389828A83E0F5F0A3E208B5F03C6039
:100B9E003A80F389828A83E493F5F0A3E608B5F0F0
:100BAE002A602880F2805389828A83ECFAE493F5D6
:100BBE00F0A3C8C582C8CCC583CCE0A3C8C582C883
:100BCE00CCC583CCB5F004600280E27FFFB5F002A5
:100BDE000F2240027F012289828A83ECFAE0F5F02F
:100BEE00A3C8C582C8CCC583CCE0A3C8C582C8CC77
:100BFE00C583CCB5F0D560D380E389828A83ECFAC5
:100C0E00E0F5F0A3C8C582C8CCC583CCE493A3C8D5
:100C1E00C582C8CCC583CCB5F0B160AF80E288F098
:100C2E00ED2402B4040050A3F582EB2402B40400B8
:0B0C3E0050992323458223900B27735D
:00000001FF
