:030000000208C132
:0C08C100787FE4F6D8FD75810A02084B30
:0D08B40057656C636F6D6500486F6D6500E2
:10084B001208807BFF7A0879B41208287FC012083F
:0C085B00947BFF7A0879BC12082880FE0C
:100880007F381208947F0C1208947F011208947F1D
:040890008002089446
:100894008FA0C290120800C2927F027E0002080854
:1008A4008FA0D290120800C2927F027E0002080834
:100828008B088A09890AAB08AA09A90A120867FF6E
:1008380060101208A47401250AF50AE43509F509BF
:0308480080E42227
:08080000C291D2927F027E003A
:10080800E4FDFCC3ED9FEC9E5015E4FBFA0BBB0026
:0F081800010ABA04F8BBFBF50DBD00010C80E42A
:0108270022AE
:10086700BB010689828A83E0225002E722BBFE028F
:09087700E32289828A83E49322C2
:00000001FF
