:030000000208747F
:0C087400787FE4F6D8FD75810702086764
:03000300020800F0
:10080000C0E0C0F0C083C082C0D075D000C000C0BE
:1008100001C002C003C004C005C006C007B2A07F6B
:100820000A7E00120841D007D006D005D004D003BC
:10083000D002D001D000D0D0D082D083D0F0D0E090
:010840003285
:0D086700E4F5A0C2A075880175A88180FE8F
:10084100E4FDFCC3ED9FEE6480F8EC6480985015E4
:10085100E4FBFA0BBB00010ABA04F8BBFBF50DBDC2
:0508610000010C80DE27
:01086600226F
:00000001FF
